:1000000057C1000072C1000070C100006EC1000045
:100010006CC100006AC1000068C1000066C1000038
:1000200064C1000062C100000C943F270C940C28AE
:100030000C94B6225AC1000058C1000056C10000FD
:1000400054C1000052C1000050C100004EC1000068
:100050004CC100000C942D2348C1000046C1000093
:1000600044C1000042C1000040C100003EC1000088
:100070003CC100003AC1000038C1000036C1000098
:1000800034C1000032C1000030C100002EC10000A8
:100090002CC100002AC1000028C1000026C10000B8
:1000A00024C1000022C1000020C100007C007D416D
:1000B000BD00BE42A900AA400001010101010101E9
:1000C000010102020202020202020203030303030D
:1000D00003030304040404040404050505050506DC
:1000E000060606060707070707080808080909099A
:1000F000090A0A0A0B0B0B0C0C0C0D0D0D0E0E0E43
:100100000F0F0F10101111111212131314141515D3
:1001100016161717181819191A1A1B1B1C1D1D1E45
:100120001E1F202021222223242425262627282999
:10013000292A2B2C2D2D2E2F3031323233343536C7
:100140003738393A3B3C3D3E3F40414243444546C7
:100150004748494A4C4D4E4F5051535455565859A3
:100160005A5B5D5E5F616264656668696B6C6D6F4A
:100170007072737577787A7B7D7E808283858788BD
:100180008A8C8E8F91939596989A9C9EA0A2A3A5F7
:10019000A7A9ABADAFB1B3B5B7BABCBEC0C2C4C6F8
:1001A000C9CBCDCFD1D4D6D8DBDDDFE2E4E7E9EBB4
:1001B000EEF0F3F5F8FAFDFF0C0332006B0065007A
:1001C000790032000000200333002D004B00650051
:1001D00079002D00450063006F0073007900730003
:1001E000740065006D0000000403090409023B006F
:1001F000020100A0FA090400000103010100092125
:1002000011010001224400070581030800010904CF
:100210000100010300000009211101000122320048
:1002200007058203200001120100020000000809F6
:1002300012043301000102000105010980A10185BA
:100240000319012AB700150126B700950175108121
:1002500000C0050C0901A101850419012AA002159D
:100260000126A002950175108100C005010906A1B3
:1002700001050719E029E715002501950875018199
:10028000029501750881010507190029FF1500264F
:10029000FF0095067508810005081901290515005C
:1002A0002501950575019102950175039101C00025
:1002B00011241FBECFEFDAE0DEBFCDBF11E0A0E01A
:1002C000B1E0E2E4F7E502C005900D92A03BB10772
:1002D000D9F722E0A0EBB1E001C01D92A53CB20726
:1002E000E1F70E94F60E0C941C2B8ACE833088F422
:1002F00061110FC0423068F4E82FF0E0EE0FFF1FED
:10030000E40FF11DEE0FFF1FE455FF4F859194910F
:10031000089581E090E00895E9CF089581E008957F
:10032000FDCF0895FBCF089581E00895F7CF08959C
:10033000F5CF0895FDCF089508950895FDCF089550
:1003400008950895A6E0B0E0E8EAF1E00C94202AD0
:1003500049835A839E833091B70189819A813111F3
:1003600017C03E81332389F0222379F016D5182F48
:10037000682F89819A81F8D469817A81812F0E94BE
:10038000C00C2696E3E00C943C2AFAD4182FF4CF44
:1003900004D569817A81F3CFFC01262F40815181F8
:1003A0006281738184819581CDCFCF93DF93EC01FE
:1003B00061E0F2DFBE01B4DF882349F061E0CE01E5
:1003C000EBDFBE01AFDF8170DF91CF91089580E058
:1003D000FACF0F931F93CF93DF93EC0160E0DCDF44
:1003E0008C01BE01AADFBE01C801A8DFDF91CF9159
:1003F0001F910F91089521E030E0A90102C0440F40
:10040000551F8A95E2F7CA01E8C3CF93C82F81E050
:1004100090E00C2E02C0880F991F0A94E2F70E9408
:10042000DC0A8C2FE8DFCF91089581E00895FDCF9D
:100430000895FBCF0895CF93C82F87D38C2FF7DF74
:100440008C2FF7DF2FEF84E39CE021508040904019
:10045000E1F700C00000CF91089581E0ECDF0C943B
:10046000512380E0E8DF0C9462230F931F93CF9316
:10047000DF938C0161E090DFEC01B80157DF81115F
:1004800006C080E0DF91CF911F910F910895B801D0
:10049000CE0150DF8823A9F3B801CE010E940B21C1
:1004A000882379F3B801CE010E94D11F882349F334
:1004B000B801CE010E94A91F882319F3B801CE010B
:1004C0000E940C0F8823E9F2B801CE010E945D0F53
:1004D0008823B9F2B801CE010E94C00D882389F2A9
:1004E000F8018581882361F0C330FCE7DF07D9F08C
:1004F00050F4C115ECE7DE07A1F0C130DC47A9F0EC
:10050000C80112DFBFCFCB358CE7D80799F0CC35C7
:10051000ECE7DE0761F0CA35DC4791F70E94A10ADB
:10052000EFCF9BDFAECF0E94D40A9BDFAACF0E9401
:10053000990AE6CF0E94A30AE3CF02DF0E9483223A
:100540000E94431D24D081E00C94591E22D080E0EB
:100550000E94591EF6DE0C94872281E0089581FFE7
:1005600002C02F9A08952F980895CF93DF93D82F24
:10057000F4DFC82F882311F08D2FF1DF8C2FDF914E
:10058000CF910895279A2F980895EFCF089580E08E
:10059000FCCF0E945321F9CFCF930E945321C82F43
:1005A0008091B2018C1771F0C093B2010E94212397
:1005B0006093B3017093B4018093B5019093B60139
:1005C0008C2FE3DFCF910895ADE0B0E0EAEEF2E0EA
:1005D0000C94212A488759876A877B878C879D8757
:1005E0009111FDD61F8286E0FE013896DE0111963C
:1005F00001900D928A95E1F78D8181110CC02981BE
:100600003A814B815C816D817E818F8138D62D96B8
:10061000E2E00C943D2ACE010196C7DE8111EFCFB6
:10062000F6CFFC012481213019F480819181E6C349
:100630000895CF93C82F882389F08CEF8C0F813ACF
:1006400078F48C2F0E94D221882321F08C2F0E94D5
:1006500013222DD78C2F0E940D2229D7CF910895D8
:1006600080E28C0F883040F4C77081E001C0880FB1
:10067000CA95EAF797D6F1CFEBE5EC0FE33040F4FB
:10068000F0E0ED59FE4F808190E00E946F21E6CFAF
:10069000C85ACB3118F7EC2FF0E0EE0FFF1FE35DE7
:1006A000FE4F808191810E949621D8CF882319F135
:1006B0009CEF980F913A18F40E941322F8C690E22A
:1006C000980F983048F4877091E001C0990F8A958F
:1006D000EAF7892F6DD6F2CF9BE5980F933020F47F
:1006E00090E080E00C946F21885A8B3120F490E0E8
:1006F00080E00C94962108951F93CF93DF93182FD9
:10070000EB0197DF209731F4812FD0DFDF91CF917C
:100710001F9108958FE99FE00197F1F700C0000055
:100720002197F0CF70E060E0893311F460E570E06C
:10073000E3CF882311F036D6BAC60895882311F086
:1007400037D6B5C60895B0E0A0E0E9EAF3E00C942E
:100750001A2A6C01D62FC72FFC011581068102953C
:100760000F7016D6E82E8823E9F0E12E1123D1F080
:100770008C2F807F803461F080E28D0F8830F8F01C
:100780008C2F807E803221F4D230C8F00023B9F063
:100790008091760282FF13C082E0A5D6F9D591E060
:1007A000E82EE926BC2EB2949FE0B922FBE0FB15AF
:1007B00080F1EB2DF0E0E25EF44D0C940B2AE12C7D
:1007C000F1CF0C2F0F70C07F11F00295007F112325
:1007D00081F0002349F080E28D0F883010F0D111B4
:1007E00005C0802FDFD563D68D2F40C0802FEAD57E
:1007F000FACF8D2F5BDF002361F080E28D0F883010
:1008000010F0D11103C0802FD3D502C0802FE0D5C6
:100810004ED6EB2DE850FF0B349708F048C10E94EC
:100820005321B3DECDB7DEB7E9E00C94362A2C2F86
:100830002F70F22EC07FC03219F0F29480EFF822B0
:10084000DD2341F0D13081F1112309F439C00023B7
:10085000C9F0CACF8091760282FD10C0112341F009
:10086000FF2019F08F2D9ED522D680E0E2DED1CF79
:1008700080E01CDFFF2069F28F2DC6CF112359F0D5
:10088000011103C08F2D55DFC4CF013009F0C1CF56
:100890008F2DB9D5BECF0111BCCF8F2D4FDF8F2D3E
:1008A000BDD58F2DA2D5B5CF112321F0063008F08C
:1008B000B0CFE8CF053008F0ACCF8F2D3FDFA9CF08
:1008C0000023D9F3D93349F43FEF87EE93E0315059
:1008D00080409040E1F700C000008D2FE7DE99CF07
:1008E0008C2F86958695837069F0813009F091CFC1
:1008F0008D2F9C2F9370111102C080E090E00E9418
:10090000962187CF8D2F9C2F9370111102C080E00C
:1009100090E00E946F217DCF8C2F837081F51111A3
:1009200078CF4D2F429546954770440F440F2D2F99
:100930002F7030E0042E02C0220F331F0A94E2F71A
:1009400090E080E0D4FF09C08FE090E002C0880F03
:10095000991F4A95E2F780959095C695C695C37004
:10096000822B932BC23039F040F4C13011F03ED1CC
:1009700050CF35D14ECF41D14CCF2FD14ACF8695D4
:10098000112311F08C2F8170882309F442CF4D2F51
:10099000429546954770440F440F2D2F2F7030E03D
:1009A000042E02C0220F331F0A94E2F790E080E089
:1009B000D4FF09C08FE090E002C0880F991F4A95CC
:1009C000E2F780959095C695C695C370822B932BC0
:1009D000C23039F040F4C13011F063D11ACF5AD18E
:1009E00018CF66D116CF16D114CFCF70112321F0B6
:1009F0008C2F24D18D2F47CF8D2FA0DE8C2F2CD183
:100A000008CFD23F39F160F4D03FB9F0D13F81F047
:100A1000112309F43CC00111E7CE8C2F8F711EC049
:100A2000D33FF1F0D43FA1F78091760282FD20C040
:100A30008C2F8F71112319F311C0112339F0053058
:100A400008F0E7CE8C2F8F7117D1E3CE063008F077
:100A5000E0CEF8CF8C2F8F711111D1CFEFD0D9CE3E
:100A6000112321F08C2F8F71DFD0D3CEDAD0D1CEED
:100A7000112329F063E08C2F8F711ED5CACE81E03F
:100A800032D5023008F4C5CE82E02DD5C2CE002387
:100A900059F0D93309F021CFEFEFF7EE23E0E15021
:100AA000F0402040E1F717CF8C2F8F71A8CFEE20B8
:100AB00009F4B8CE69D480FDB5CEF60115825ED4B6
:100AC000BDD0C60117D05AD4C7D0ACCE0F931F9358
:100AD000CF93DF93EC01688179818D8198D18C016E
:100AE000EED07AD0B801CE012EDEDF91CF911F91EA
:100AF0000F910895CF93DF93EC018C81882381F0CF
:100B0000CE01B3DC81110FC043D4882349F08D811D
:100B1000882331F08091760282FF02C082E0E3D424
:100B2000DF91CF910895CE01D1DFCE0152DCF8CF15
:100B300090E080E00E946F2190E080E00E9496218A
:100B40004ED4B5C40E941922F3CF39D4FBCF92956D
:100B50009F70963091F058F4925F9F70923058F4E5
:100B6000803F19F030F4883E30F481E008959A5FB8
:100B7000F4CF843FD1F380E00895883EB0F3813F05
:100B8000D1F7F3CFFC012481222321F080819181D0
:100B900035D1DDCF80E00895A6E0B0E0E2EDF5E0EC
:100BA0000C94212A2696E2E00C943D2AA7E0B0E0BE
:100BB000ECEDF5E00C94212A2796E2E00C943D2A16
:100BC0000895FECF0895FDCF0895FADFFCDF9093DE
:100BD000BF018093BE0108950895F7CF0895209135
:100BE000BE013091BF01822B932BEFCF2091BE012C
:100BF0003091BF0182239323E8CF2091BE01309131
:100C0000BF0182279327E1CFDBCF0895FDCF089561
:100C1000D7CF0895FDDFFADF9093BD018093BC012B
:100C2000089590E080E0F6CF21E030E0A90102C015
:100C3000440F551F8A95E2F7CA01ECCF21E030E05E
:100C400002C0220F331F8A95E2F78091BC01909178
:100C5000BD01822B932BDECF21E030E002C0220FBA
:100C6000331F8A95E2F7209530958091BC019091D1
:100C7000BD0182239323CECF21E030E002C0220FBA
:100C8000331F8A95E2F78091BC019091BD018227C4
:100C90009327C0CF2091BC013091BD01822B932BB3
:100CA000B9CF2091BC013091BD0182239323B2CFF3
:100CB0002091BC013091BD0182279327ABCF0895CD
:100CC000262F277091E001C0990F2A95EAF723E0BB
:100CD000769567952A95E1F7660F771F660F771F60
:100CE000FA01E60FF71F50E040E0682F70E08191B5
:100CF000DF0111979B01042E02C0369527950A94B7
:100D0000E2F7217021952827292328272C934F5F6C
:100D10005F4F4430510559F70895A82FA77023E07D
:100D2000969587952A95E1F7880F991F880F991F47
:100D3000FB01E80FF91F50E040E080E0219130E036
:100D40000A2E02C0369527950A94E2F721703327C0
:100D5000042E01C0220F0A94EAF7822B4F5F5F4FE7
:100D60004430510559F70895262F911108C082305B
:100D700030F4682F70E048EB51E0822FA1CF089546
:100D8000911109C0823028F468EB71E090E0C5DF72
:100D9000982F892F089590E0FCCFB0E0A0E0E3ED1C
:100DA000F6E00C941A2A7C010091BC011091BD015F
:100DB0008091BE019091BF01082B192BCFE0D0E0AC
:100DC000CC24C394D12CBC2EC6010C2E02C0880F9B
:100DD000991F0A94E2F780239123892B49F42197E4
:100DE00090F7B12C8B2DCDB7DEB7E9E00C94362A05
:100DF000B7018C2FD0D5019791F3F4CFCF93DF9328
:100E0000EC01CBDFBE01C7D5DF91CF9108951F93D1
:100E1000CF93DF93EB019091B701992331F0CB0190
:100E2000EDDFDF91CF911F910895882351F0CB0121
:100E3000B4DF182F682FCE0197DFBE01812FABD50D
:100E4000F0CFCB019DDF182FF8CF1F93CF93DF9307
:100E5000C091C00117E08091C1018C1304C0DF91E3
:100E6000CF911F910895D0E01C9FF0011D9FF00DC0
:100E70001124EE53FE4F20813181428153816481E0
:100E80007581868193DE2196C770E5CF2091FA01A6
:100E90003091FB014091FC015091FD016091FE01F8
:100EA0007091FF018091000281CECF93DF938091FA
:100EB0000002807F09F04BC08091FF01882309F474
:100EC00046C0E091C0015091C101C091FB01D09199
:100ED000FA016091FC017091FD0147E05E17B9F1E4
:100EE0008E2F90E0E49FF0011124EE53FE4F2481F9
:100EF000222381F1489FF001499FF00D1124DF0169
:100F0000AE53BE4F11962C9111972C1323C02C91E8
:100F10002D1320C015962C91159721111BC01296E8
:100F20002D913C91261B370B283C310598F480917C
:100F300000028F70806180930002E853FE4F808131
:100F40008F70806180838AEF91E0D4DD7EDFDF9156
:100F5000CF910895FC013196E770C0CF482F2091C2
:100F6000C0019091C10157E0291302C080E00895AB
:100F700030E0529FF001539FF00D1124EE53FE4FCD
:100F80008181681306C08081481303C08581811167
:100F9000EECF2F5F3F4F2770E7CFA4E1B0E0E3ED46
:100FA000F7E00C94172A8C0186E0F801DE011F9609
:100FB00001900D928A95E1F7F8018481E5809AEF1E
:100FC000A92E91E0B92E9091FE0191111AC08823AB
:100FD000A9F0EE2089F0C801D5DDF82E882361F054
:100FE00087E0F801D50101900D928A95E1F7C501DE
:100FF00018DB5BDF4BDF59C0C8017CDDFF24F394B5
:1010000054C0C080D18082809380F090FF012091F5
:10101000FC013091FD01A401421B530BFF2009F498
:10102000E9C0483C510508F09CC0882309F43DC044
:101030009091FB0180910002282F207F09F056C07B
:101040009D1114C09091FA01C91210C0E11048C05E
:101050008F7080618093000219DF8AEF91E04ADD92
:1010600080910002F8018683F12C1FC0E11038C086
:101070006D2D8C2D73DF6D2D8C2D70DFE82E811181
:10108000F3CFCF86D88A8F859889B8DE292F22950D
:101090002F70243078F49F702230A0F09923B1F0A3
:1010A000F8019681907F91F4FE2C8F2D6496ECE0F0
:1010B0000C94332A2A5F2F70223060F0C8011ADDA9
:1010C000EF2CF2CF992311F0882371F3805E8830E2
:1010D00058F3F4CF803F40F3815F833078F7E4CF5B
:1010E00080910002816080930002BECF9D1112C0EA
:1010F0009091FA01C9120EC0E1100CC08683C8019C
:10110000F9DC87E0F801AAEFB1E001900D928A9531
:10111000E1F770CFC80136DD882309F46DCFEE20EA
:1011200009F46ACF80910002803280F02091FA01A8
:101130003091FB01398728879B868A869091FE0132
:101140009C871D868E87CE010896D4DC87E0F80147
:10115000AAEFB1E001900D928A95E1F7A6DE96DE46
:101160004DCF90910002292F207F89F4682D9A8A13
:10117000898AA6017A899E2D0FDD8AEF91E0BADC7B
:1011800087E0F50111928A95E9F780DE6DCF88231B
:1011900009F48BCF8091FB018D110FC08091FA0172
:1011A000C8120BC0E11009C09683C801A3DC87E018
:1011B000F50111928A95E9F778CFC801E3DC88231D
:1011C00009F41ACFEE2009F417CF80910002803283
:1011D00008F4BCCF2091FA013091FB013A832983B6
:1011E0009C828B829091FE019D831E828F83CE0113
:1011F0000196ABCF483C5105A8F5882309F4FECEF3
:10120000FE2CEE2009F4F8CE8091FB018D111EC05A
:101210008091FA01C8121AC08091000280FD0DC0B1
:10122000982F907F51F08683903F09F468CF982FD4
:10123000907F905F8F70892B61CF87E0F801AAEFD4
:10124000B1E001900D928A95E1F72FCFC8019ADCA9
:1012500081117CCF80910002816080930002C801DF
:1012600049DC23CF682D9A8A898AA6017A899E2D26
:1012700093DC87E0F50111928A95E9F7BBCEAEE0E9
:10128000B0E0E5E4F9E00C94202A288739874A8702
:101290005B876C877D878E87CE0108967EDE8823EC
:1012A000A9F06C85662339F0288539854A855B85E8
:1012B0007D858E857BDC17E08091C0019091C10116
:1012C00089133BC02E96E3E00C943C2A87E0FE0194
:1012D0003896DE01119601900D928A95E1F78C8582
:1012E000882349F32091C10130E0C901019687703C
:1012F00099274091C0014817190691F097E0929FF5
:10130000D001939FB00D1124AE53BE4FFE01319614
:1013100001900D929A95E1F78093C10196DDCBCFB4
:1013200014DC1092C1011092C00187E0EAEFF1E0F5
:10133000DF011D928A95E9F7BECF819FC00111247C
:101340008E539E4F2ADE882309F4BCCFE091C00162
:101350001E9FF0011124EE53FE4F20813181428106
:10136000538164817581868121DC8091C00190E088
:101370000196877099278093C0019ECF80910902C2
:1013800086958695869508958091090287700895BF
:1013900090910902977081E009F480E008958091AE
:1013A0001502089590911502892B809315020895D6
:1013B00080959091150298239093150208951092AC
:1013C0001502089590911402892B809314020895B8
:1013D000809590911402982390931402089510928E
:1013E000140208950895FECF089590910A02292FBE
:1013F000282329F08095892380930A02F4CF089549
:101400000895FECF089590910B02292F28232817C5
:1014100021F0982B90930B02F4CF089590910B023A
:10142000292F282329F08095892380930B02E9CF67
:10143000089580910B02882321F010920B0280E026
:10144000E0CF08950F931F93CF93DF9300910C018A
:1014500010910D01C091150280911402C82B80914A
:101460000B02882329F0C82B0E94BD218111E1DFE6
:10147000F801C083C0910C01D0910D0148E050E00B
:1014800061E072E0CE010E949D2A892B59F088E02C
:10149000FE01A1E0B2E001900D928A95E1F7CE0144
:1014A0000E946221DF91CF911F910F910895CACFC1
:1014B00008950895FECF08959091760292FF0EC090
:1014C00098E0899F90011124622B60930902B6DB9A
:1014D00080910902869586958695ECCFAFCB1092C8
:1014E000090280E0E7CF90910902809589238093DB
:1014F0000902282F277059F4891749F09091760234
:1015000092FF05C0869586958695A6DBE8CF08955F
:101510009091760292FB222720F9281749F080FB50
:1015200092F99093760285E792E04AD082E0DBCF91
:1015300008958091760282FB882780F991E08927BF
:10154000E7CF81E0E5CF80E0E3CF60E070E0CB0162
:1015500082C360E070E0CB0178D3F7CFA3E0B0E0C6
:10156000E4EBFAE00C94212A1DD328D31B82CE0190
:1015700003963BD381E090E09093BF018093BE013E
:1015800040D31A8219828A8184618A83CE010196AE
:1015900049D30E949B14DDDF0E9494142396E2E05D
:1015A0000C943D2ADBCF08950FC30895FCC2089523
:1015B00011C3089520C3089524C3089527C308952F
:1015C00031C3089536C308953AC308954AC30895B0
:1015D000A6E0B0E0EEEEFAE00C941F2A0E9415237C
:1015E0008C0180911602909117028017910781F06B
:1015F00019821A820E941523682F49815A81792FF6
:1016000080E090E00E94E40210931702009316021B
:101610002696E4E00C943B2A0E94212360931D024D
:1016200070931E0280931F02909320026093190210
:1016300070931A0280931B0290931C0208950895E0
:101640000895FDCF08950895FEDFFBCF0895FECFE6
:1016500008950895FEDFFBCF8EEB9DE0D8D3F0DF39
:10166000F3CF81E00895FDCF0895FBCF089508954D
:1016700008950895FCDFFCDFFCCF98DF811101C0E5
:1016800091DF81E292E094DF85E792E097DF0E94AC
:10169000A71F90DFA2DA8091BC019091BD01B6CA6C
:1016A0000E940C233DD3E9DF0E94C2020E94FE1D6E
:1016B000D1CFA6E0B0E0EFE5FBE00C941B2AD3DF2E
:1016C000811109C085DF0E94431D0E94CC0226962D
:1016D000E8E00C94372A2CD31091180280E0CCD289
:1016E000181781F38091210281FDCCD2BEDFC82E74
:1016F00080E0C2D2182F80911802181731F100E053
:10170000FF24F394E12EE8268E2D8F21C9F0DD24ED
:10171000D394812F8F2109F4D12CCC2061F009833F
:101720001A820E941523682F49815A81792F81E0FE
:101730009D2D0E94E4024D2D602F80E00E94E31554
:10174000FF0C013021F41093180266DFBCCF01E0DA
:10175000DBCF1F93CF93DF9320D1EC01C11580E540
:10176000D807F0F5C11580E4D80708F09AC0C03E4C
:10177000D10520F5CD3CD10508F082C0C83AD1058D
:1017800078F4C53AD10508F073C0C130D10519F11C
:10179000209709F1C430D105F0F4D0E0C0E01BC0BF
:1017A000C33CD105D0F7C85AD0E0CC0FDD1FCA59D1
:1017B000DE4F0990D881C02DD4640DC0C11580E2E0
:1017C000D80708F0CDC0C11581E0D80708F05AC08D
:1017D000C83ED10510F7CE01DF91CF911F9108953A
:1017E000C03682E5D80718F5C03482E5D80708F07E
:1017F00068C0C03282E5D80708F05CC0C11582E538
:10180000D80708F493C02C2F2695269580E2289FB0
:10181000900111248C2F8370C1E0D0E002C0CC0F66
:10182000DD1F8A95E2F7C22BD32BDD68D4CFC03AF7
:1018300082E5D80760F4C03882E5D80708F456C0BE
:10184000CF71D0E0DC2FCC27C46FD06AC4CFC03CAE
:1018500082E5D80708F45FC0C03E82E5D80708F0EB
:101860009CCFDC2FCC27CC27DF71C06FD06AB3CFE1
:10187000C55AD0E0C456DE4FC881D0E0D064ABCFAB
:10188000D065A9CF8D2F2BD1182FCE01992785D0C8
:10189000C12FD0E0DC2FCC27CC27DF71C82BD92B70
:1018A0009ACFCE01992779D0CC27DF70C82BD92BBE
:1018B000D06A91CFCF71D0E0DC2FCC27C16FD06A36
:1018C0008ACF2C2F26952695277080E2289F90019D
:1018D00011248C2F8370C1E0D0E002C0CC0FDD1F3B
:1018E0008A95E2F7C22BD32BDC6875CF2C2F269577
:1018F0002695277080E2289F900111248C2F8370F9
:10190000C1E0D0E002C0CC0FDD1F8A95E2F7C22B08
:10191000D32BDA6860CF8C2F8F71E1D0C82FD0E045
:10192000DC2FCC27CC27DF71D06255CF8C2F8F7165
:10193000D6D055E0D695C7955A95E1F7CF70D0E04F
:10194000DC2FCC27282F30E084FF06C044E0220F94
:10195000331F4A95E1F73327C22BD32BD0693BCFF6
:101960008D2F8F71BCD0182FCE01992716D0C12F83
:10197000D0E0DC2FCC27CC27DF71C82BD92BD4CFDC
:10198000462F711105C0623018F460E00C948C0190
:1019900090E080E00895F4DFDCCE82389105B9F163
:1019A000B0F48133910509F47DC048F48932910582
:1019B00009F46DC08A32910509F47BC0089585331E
:1019C000910509F45FC08933910509F10895833EBB
:1019D0009105D9F138F4803E910529F1823E9105B7
:1019E00079F10895863E9105D9F1873E910509F474
:1019F0003EC0843E910541F52091760221FF24C02E
:101A00008091750284FD19C087EE90E008952091C1
:101A10007502237009F05AC02091760223FF14C08A
:101A200089E290E008952091750220FD38C0309140
:101A3000760230FF09C024FF43C090E080E00895A3
:101A40002091750222FDF7CF08952091750222FDA5
:101A50003AC03091760230FD39C024FFF5CFEDCF8A
:101A60002091750223FFF0CF24FDE7CFCDCF209149
:101A7000750223FD2EC03091760231FFEECF84EE49
:101A800090E008952091750225FFDECFC9CF209107
:101A9000750225FD21C02091760223FFD5CF89E371
:101AA00090E0D2CF2091750226FFCECF8AE290E05F
:101AB00008952091750226FFC7CF81E390E0089535
:101AC00083EE90E0089582EE90E0089580EE90E03D
:101AD000089586EE90E0089585E390E00895909152
:101AE000750292FF10C041E0282F2471243009F0C4
:101AF00040E031E0282F2871283009F030E043170A
:101B000011F02CE0822793FF10C041E0282F2471B0
:101B1000243109F040E031E0282F2871283109F004
:101B200030E0431711F02CE082273091760230FF2D
:101B300010C051E0282F2171213009F050E041E020
:101B4000282F2871283009F040E0541711F029E0BF
:101B5000822731FF10C041E0282F2171213109F087
:101B600040E031E0282F2871283109F030E0431798
:101B700011F029E0822794FD877E089580E0089582
:101B8000CF939C01205E3245C1E02032310538F40C
:101B9000FB01C581C11103C08F710E9405028C2F0A
:101BA000CF910895089590E080E00E94CB2A21E033
:101BB000833E9E4F09F020E0822F089563EE7EEF72
:101BC00090E080E00C94F92A6FEF7FEF90E080E0E6
:101BD0000C94F92ACF93DF93EC0182E090E00E940D
:101BE000C32A8883DF91CF910895FC01608182E050
:101BF00090E00C94DF2A83E090E00E94C32A90E0FA
:101C00000895682F83E090E00C94DF2ACF93DF9350
:101C1000EC0184E090E00E94CB2A99838883DF91D5
:101C2000CF910895FC016081718184E090E00C9473
:101C3000F92A48E050E067E170E00C94B32A48E0EC
:101C400050E067E170E00C94D02AAB01BC018FE05A
:101C500090E00C94F12AAB01BC0183E190E00C947C
:101C6000F12A682F8EE090E00C94DF2A0895FECFD1
:101C700008950895FECF0895E82FF0E0E858FD4F4D
:101C800080810895089580EA8A95F1F7089500C04B
:101C90000895F9CF0895F894E82FE295EF70F0E0F9
:101CA00031A1282F2F7081E090E001C0880F2A9584
:101CB000EAF7982F9095932391A392A1892B82A361
:101CC0007894089586EFE7DF84EFE5DF87E9E3CFD7
:101CD0000F931F93CF93DF938C01D62FF894869A9E
:101CE0008E987894D4DFCFB1C4FB882780F9C1E007
:101CF000C8274F9913C082E0C82B86EFCCDF61E084
:101D0000C11101C060E08D2FC4DFF801ED0FF11D9E
:101D1000C083DF91CF911F910F91089580E0ECCFA8
:101D2000D1DF109278021092770281E023D09FCF0A
:101D3000A1E0B0E0EEE9FEE00C94202A198260E018
:101D4000CE010196C5DF90917702898121E0981339
:101D500001C020E098138093770241E068E772E0C9
:101D600087E792E008D0182F85DF812F2196E3E0E6
:101D70000C943C2A0895B0E0A0E0E1ECFEE00C9465
:101D80001B2A6C017B01042FC22F222379F081E0F2
:101D9000809324020E9415239093230280932202B1
:101DA00080E0CDB7DEB7E8E00C94372AD09124026A
:101DB000DD23B1F380912202909123020E949622AA
:101DC000059770F310E0A801B601C7010E949D2A93
:101DD000892B31F0A801B601C7010E94AA2ACD2F94
:101DE000109224028C2FDDCF64CC08950E94AF2284
:101DF0000E948D2431DC0E94A52452DC0E94AE2476
:101E00000E94B124F1DF0E94C72434DCF9CF909303
:101E1000B1018093B00108950F931F93CF938C016C
:101E2000FB01C581CC2309F446C0B9DA8272F801FE
:101E3000E052F847EB30F10538F4E65DF44D0C94D0
:101E40000B2A0E947C1EC0E08C2FCF911F910F9116
:101E50000895882329F00E94CE1EF5CF8823D9F358
:101E60000E94C21EF0CF882329F00E94FA1EEBCFF9
:101E70008823D9F30E94ED1EE6CF882329F00E9423
:101E8000181FE1CF8823D9F30E94091FDCCF8823D4
:101E900029F00E94361FD7CF8823D9F30E94271F2D
:101EA000D2CF882329F00E944E1FCDCF8823D9F3AB
:101EB0000E94421FC8CFC1E0C7CF1F93CF93DF93CB
:101EC000EC01FB01158111110FC069DA8272FE016C
:101ED000E054F847ED30F10508F043C0EB5CF44DF9
:101EE0000C940B2A0E948B1E812FDF91CF911F91A2
:101EF00008950E949B1EF8CF0E947C1EF5CF882378
:101F000029F00E94CE1EF0CF8823D9F30E94C21E72
:101F1000EBCF882329F00E94FA1EE6CF8823D9F35D
:101F20000E94ED1EE1CF882329F00E94181FDCCF0C
:101F30008823D9F30E94091FD7CF882329F00E9454
:101F4000361FD2CF8823D9F30E94271FCDCF8823F5
:101F500029F00E944E1FC8CF8823D9F30E94421F48
:101F6000C3CF11E0C1CFEF92FF920F931F93CF9396
:101F7000DF939B01682F31110EC0442329F0E82F15
:101F8000F0E0E854FF4F6491762F862FCDB7DEB78F
:101F9000E6E00C94392AC32FD0E0E82FF0E0442388
:101FA00021F0E854FF4FE491F0E046E0249FC001A7
:101FB00011240FEF10E0B8010E94A629AB01822F77
:101FC00090E0880F991F25E5249FB001259F700D93
:101FD0001124861B970B982F990F980FB8016C1B33
:101FE0007D0B6E9FD0016F9FB00D7E9FB00D1124B1
:101FF0008B2F939F90011124232F3327B801621B4D
:10200000730B6E9F90016F9F300D7E9F300D1124DA
:102010007801E91AF108EC9EB001ED9E700DFC9E6E
:10202000700D1124672F7727061B170B0E9FE001F9
:102030000F9FD00D1E9FD00D11247D2F9E2F42305B
:10204000510599F048F44115510569F041305105A9
:1020500081F07B2F832F07C04430510569F080F059
:1020600046305105B1F7692F91CF9B2F8D2F7E2FD1
:10207000FACF7E2F932FF7CF9D2F7B2F8E2FF3CF6D
:10208000732F9B2FFBCF41E06ECF282F269F020E90
:1020900020E0211D1124822F089530E020E0869F4A
:1020A000080E211D969F200D311D1124290F311D71
:1020B000C9010895AC018230910508F408959FEF9D
:1020C000413E8EE1580740F49A0195E036952795F8
:1020D0009A95E1F798E0920F61E0E62FE90FFF276C
:1020E000FF1F9F0135952795822F229FF001239F87
:1020F000F00DF00D11244E175F0738F49FEF920F8B
:10210000961758F78FEF860F08952F3FE9F361E098
:10211000620FF6CF40911A0150911B0125E038E083
:10212000429FC001439F900D529F900D1124875EE6
:10213000994C90931B0180931A01890F0895E82F01
:1021400086FDE0952E2F2F7086FD2F5FE695E69594
:10215000E695E670F0E0E156FE4F9181929F902D5A
:10216000212D112492959F702295207F922B208102
:10217000920F87FD919580E8890F08951F93CF9363
:10218000DF93D62FC72F182F822F8695D8DF805840
:1021900087FD8195612F880F78DF6D2F7C2FDF9170
:1021A000CF911F9108950F931F93CF93DF93162F15
:1021B000C72FD82F022FE42FF0E0EE0FFF1FEA5FAA
:1021C000FE4F64EE808161DF4C2F50E0282F30E01D
:1021D000245E3F4F201B310937FF03C03195219505
:1021E000310983E0220F331F8A95E1F7CA01821B70
:1021F000930B97FD80E06C2F48DF612F782F8D2F98
:10220000DF91CF911F910F9108950F931F93CF935B
:10221000DF93162FD72FC82F022FE42FF0E0EE0FF9
:10222000FF1FEA5FFE4F64EE80812FDF4C2F50E0EE
:10223000282F30E0245E3F4F201B310937FF03C0B9
:1022400031952195310983E0220F331F8A95E1F7FB
:10225000CA01821B930B97FD80E06C2F16DF612F64
:102260007D2FDF91CF911F910F910895622F0895D7
:10227000E42FF0E0EE0FFF1FEA5FFE4F6081621B6C
:102280000895E42FF0E0EE0FFF1FEC5FFE4F638137
:10229000621B0895322F50E0FA01EE0FFF1FEC5F32
:1022A000FE4F9381905297FD9195440F551FFA016F
:1022B000EA5FFE4F2081231B330B290F311D97FD51
:1022C0003A95620F0895EF920F93972F23E0029FA4
:1022D000B0011124759567956E0D792F0F91EF90D0
:1022E00008950F93CF93DF93D72FC82F47FD4195C4
:1022F00088E390E0841B910947FD9395889FB00186
:10230000899F700D700D1124229FC001239F900D95
:10231000900D1124860F971FCDDE982F990F890FEE
:10232000682F600F7D2F8C2FDF91CF910F91089533
:102330000F931F93522F10E0F801EE0FFF1FEC5F79
:10234000FE4FA381A052BB0B9D015203F001539F8E
:10235000F00D1124000F111FD801AA5FBE4F0C9180
:102360000057110B40039001419F300D11242E0F97
:102370003F1F37FF02C021583F4F220F232F221F3C
:10238000330B620F1F910F9108950F931F93522FDC
:1023900010E0F801EE0FFF1FEC5FFE4FA381A0528B
:1023A000BB0B9D015203F001539FF00D1124000F50
:1023B000111FD801AA5FBE4F0C910057110B4003AB
:1023C0009001419F300D11242E0F3F1F37FF02C097
:1023D000215C3F4F96E0359527959A95E1F7620F7E
:1023E0001F910F9108950F931F9310E0F801EE0FC6
:1023F000FF1FEA5FFE4F9081905797FD9195000F68
:10240000111FF801EC5FFE4F03810052110B2003F6
:10241000F001219FF00D112408E310E0091B1109C0
:1024200097FD139540039001419F300D1124E20F59
:10243000F31F9F01220F331F2E0F3F1F37FF02C0D4
:1024400021583F4F220F232F221F330B620F1F9162
:102450000F9108951F93CF93DF93C62F172FD82F77
:10246000822F86956CDE805887FD81956CE0880F01
:102470000CDE682F6C0F712F8D2FDF91CF911F9184
:1024800008950F931F93CF93DF93D62F072F182F05
:10249000C42F822F54DEEC2FF0E0EE0FFF1FEA5F17
:1024A000FE4F90819058890F87FD81956CE0880FD1
:1024B000ECDD682F6D0F702F812FDF91CF911F9171
:1024C0000F9108951F93CF93DF93C62F172FD82F07
:1024D000E42FF0E0EE0FFF1FEA5FFE4F8081821BCA
:1024E00087FD819568E1D1DD682F6C0F712F8D2FED
:1024F000DF91CF911F910895CF93DF93D62FC72FF0
:10250000682F842F8095C1DD6D2F7C2FDF91CF91B7
:1025100008951F93CF93DF93C62F172FD82F60E412
:10252000842F8095B2DD682F6C0F712F8D2FDF9176
:10253000CF911F910895EF92FF920F93970195E02D
:10254000099F200D311D11242F3F310519F010F086
:102550002FEF30E02095382F320F08F43FEF832F14
:102560000F91FF90EF900895EF92FF920F931F93BA
:102570000E0D1F2D111DF90137FF03C0F195E195D7
:10258000F10924E0EE0FFF1F2A95E1F7EF3FF10577
:1025900019F014F0EFEFF0E09A0157FF03C0319506
:1025A0002195310994E0220F331F9A95E1F72E17F8
:1025B0003F070CF4F901E00FF11FEF3FF10519F0AF
:1025C00010F0EFEFF0E0E095282F3E2F230F08F4F6
:1025D0002FEF822F1F910F91FF90EF900895EF92B0
:1025E000FF920F93972F093438F4B701601B7109DC
:1025F0006F3F710519F010F06FEF70E0485F5F4FAB
:102600004131510540F0A901485F5F4F413151050B
:1026100010F06FEF70E06095482F460F08F44FEF11
:10262000842F37FF02C02D5F3F4F35952795359595
:10263000279560917A02620F792F0F91FF90EF90AA
:102640000895EF92FF920F939701201B31092F3FBE
:10265000310519F010F02FEF30E0322F3095482F70
:10266000430F08F44FEF842F620F0F91FF90EF900C
:102670000895EF92FF920F939701201B31092F3F8E
:10268000310519F010F02FEF30E02095382F320F80
:1026900008F43FEF832F0F91FF90EF9008959091F2
:1026A0002E02892B80932E020895FC019B01009736
:1026B00029F480E077FF2BC080E80895AC0197FFF4
:1026C00004C044275527481B590BB901640F751FD7
:1026D00037FD10C0241B350BC901A5E0880F991FD9
:1026E000AA95E1F70E94BA2980E2861BF7FF0FC086
:1026F00081950895CB0165E0880F991F6A95E1F7F0
:10270000BA01621B730B0E94BA2980E6EECF0895CE
:102710000F931F93CF93DF93162FC72FD82FC90185
:10272000272F201B022FBA01C0DF982F990F990F76
:10273000891B6C2F800FA9DC612F782F8D2FDF91E3
:10274000CF911F910F9108950F931F93CF93DF9314
:10275000162FD72FC82FC9012C2F201B022FBA01EB
:10276000A4DF982F990F990F891B6C2F800F8DDC98
:10277000612F7D2FDF91CF911F910F910895EF92DF
:102780000F931F93CF93DF93162FC72FD82FC90115
:102790000E19070FBA0189DF6C2F081B802F75DC1B
:1027A000612F782F8D2FDF91CF911F910F91EF9097
:1027B0000895EF920F931F93CF93DF93162FD72F88
:1027C000C82FC9010E190C0FBA016FDF6C2F081B3F
:1027D000802F5BDC612F7D2FDF91CF911F910F91B7
:1027E000EF9008950F93CF93DF93D72FC82FC90190
:1027F000BA015BDF682F600F7D2F8C2FDF91CF91A7
:102800000F910895EF920F93CF93DF93D72FC82F97
:10281000C9010E19BA0149DF602F681B7D2F8C2F6B
:10282000DF91CF910F91EF9008952DCC0895B0E0F6
:10283000A0E0EDE1F4E10C94162A982E862E062FE6
:1028400010E0E82FF0E0EE0FFF1FEC5FFE4FE00F0F
:10285000F11FC081CF3F49F174E0A72E71E0B72E80
:10286000F12CE12CD0E0CE01880F991F9C012A5F4A
:102870003E4F6901EC01C95FDE4FF8E27F2E035A3B
:102880001D4FF50181915F018F3F59F0911016C0E6
:102890008E1014C0F801208130E2230F08F42FEFCE
:1028A000208381E0E816F10429F4CDB7DEB7EDE02E
:1028B0000C94322AEE24E394F12CE3CF90E0F6015D
:1028C0002081FC01EE0FFF1FEA5FFE4F3081231BCA
:1028D000330B4881880F991FFC01EC5FFE4F838109
:1028E000481B550B229FB001239F700D700D1124C2
:1028F000449FC001459F900D900D1124860F971F96
:10290000D9DB893270F6272D382F231B08F420E0FD
:10291000F701E35AFD4F213108F020E13081320FF9
:1029200008F43FEF3083BDCF89E792E00E94E40ACC
:1029300010922E020895E9E7F2E085E88083809105
:102940002A0190912B01A0912C0181839283A38372
:1029500084E184838FEF8583CF010E94E40A109283
:102960002E02089580E008950F931F93CF93DF9375
:10297000C82FD62F8A01F6DF6C2F70E0660F771F05
:102980006C5F7E4F6D0F711DFB0190819F3F29F0A1
:10299000F801E80FF11D90838F5FDF91CF911F91B8
:1029A0000F910895E091AD01F091AE010995089560
:1029B0000895FF920F931F93CF93DF93162F042F49
:1029C000F22EC091A901D091AA01F2DF2F2D402F44
:1029D000612FFE010995CDB7DEB7E5E00C943A2AE8
:1029E000B0E0A0E0E6EFF4E10C941C2AC82FD0E0A0
:1029F000FE01EC5FFE4F8681682341F1D0907B029F
:102A000000917C0210917A02E12EF12C83DB282FB9
:102A1000C7018C549F4F68E671E00E94BA298E1955
:102A20009F0997FD0396959587959595879543E022
:102A3000249F90011124612F839F600D11247D2D0F
:102A4000802FF3DE472F282FCE01B3DFCDB7DEB7BF
:102A5000E7E00C94382A1F93CF93DF93C82FD0E080
:102A6000FE01EC5FFE4F8681682389F053DB182F4F
:102A700051DB20E8829FC00111247FE7790F612F8D
:102A800080917C02D2DE472F282FCE0192DFDF918A
:102A9000CF911F910895E091AB01F091AC010995A0
:102AA0000895A8E0B0E0E7E5F5E10C94172AFC01F1
:102AB000F0907C0223E0F29E800111241695079588
:102AC00016950795802EAF2CB12C8FEF90E0B501B5
:102AD0000E94BA29E62E8281882351F040E060E00E
:102AE00080E0D9DF10925E0210925D0210922D02FA
:102AF00080912C028F5F80932C028DE5C82E82E09E
:102B0000D82E912CA01AB10A80912D0281112FC0CC
:102B10000E948F2A8535954054F5F601F082AE016A
:102B20004F5F5F4F692D80E01FDF8823B9F0F6010A
:102B30002081E981F0E0821638F530E0201B310B6E
:102B4000209FC001219F900D309F900D1124B50151
:102B50000E94A629262F4F2DCF012BDFFFEFCF1A82
:102B6000DF0A21E09216D1F099249394CDCFF6019B
:102B700080818823A1F28F1590F690912C029E11EE
:102B8000CECF81508083CBCFF29EC0011124B801FB
:102B90000E94A629462F20E060E0DECF80912C0223
:102BA0008E1102C010922C0280912D028F5F8D3108
:102BB00038F480932D0280E02896ECE00C94332AC0
:102BC00010922D02F8CFA8E0B0E0E9EEF5E10C9408
:102BD000192AC82EB62EA42E0E94310B882309F480
:102BE00055C0D12CAA2039F0AE014F5F5F4F6B2D3D
:102BF0008C2DBADED82E0D2D10E080912F02800F83
:102C0000912F911D09976CF188E090E07C01E01A0A
:102C1000F10AB801605D7D4FA70180E392E00E9458
:102C2000AA2AB801685C7D4FA70188E392E00E9460
:102C3000AA2AA701440F551FB801660F771F685BCA
:102C40007D4F88E492E00E94AA2AB801605C7D4F23
:102C5000A70180E492E00E94AA2A88E08D1980935F
:102C60002F0210912F02DE01119640E0842F810F78
:102C7000D41210C080932F02AA2041F080917902D3
:102C80008C7F883719F46B2D8C2DD1DD2896EAE0E6
:102C90000C94352A5D91252F30E090E0BC01615DF8
:102CA0007D4FF901EE0FFF1FEA5FFE4F0081FB0130
:102CB0000183220F331FF901EC5FFE4F2381FB01DB
:102CC0002187518B880F991FFC01E15DFD4F128E0A
:102CD000118E4F5FCBCF81E00895FDCF0895FBCFDC
:102CE0000895FBDFFCCF91E0980F933008F092E05D
:102CF0000895B0E0A0E0EFE7F6E10C94152A4C014E
:102D00003B01FC018081EFDFC82F192F60917D020C
:102D100066958091810290918202BFD9F82ED0E011
:102D2000C11748F081E0123008F080E0CDB7DEB77F
:102D3000EEE00C94312AFE01EC5FFE4F8681F40137
:102D40009181892379F1FE01EE0FFF1FEC5FFE4FA9
:102D50008281282F2057330B69018381E82FE052AD
:102D6000FF0B5F01CC9C9001CD9C300D300D1124E8
:102D7000EE9FC001EF9F900D900D1124820F931FC5
:102D800099D9082F60917A0270917B0280917C0220
:102D9000EF2C9501A601F301099547DD472F282F58
:102DA000CE0107DE2196BCCF6FEB73E1A2CF69EDB8
:102DB00073E19FCF63E671E19CCF62E074E199CF4C
:102DC000B0E0A0E0E6EEF6E10C94182A6C015B019D
:102DD000FC01808188DFC82F192F60917D026695E4
:102DE000809181029091820258D9982ED0E0CE0134
:102DF000880F991F9C012C5F3E4F7901C11748F045
:102E000081E0123008F080E0CDB7DEB7EBE00C9443
:102E1000342AFE01EC5FFE4F8681F6019181892301
:102E2000A9F0F70123812052330B42814057550B03
:102E300060917A0270917B0280917C02092DF501EC
:102E40000995F3DC472F282FCE01B3DDF2E0EF0E1A
:102E5000F11C2196D3CF68E873E1B2CF64EA73E145
:102E6000AFCF61E771E1ACCF62EF73E1A9CFB0E022
:102E7000A0E0EDE3F7E10C941B2A7C018B01FC013F
:102E8000808131DFC82FD92E60917D0266956695CD
:102E900021E0620F08F46FEF80918102909182022D
:102EA000FCD8C82ED0E0CD1548F081E08D1508F48F
:102EB00080E0CDB7DEB7E8E00C94372AFE01EC5F86
:102EC000FE4F8681F7019181892379F060917A0222
:102ED00070917B0280917C022C2D4C2FF80109957A
:102EE000A4DC472F282FCE0164DD2196DCCF6EEBCA
:102EF00070E1BDCF63ED70E1BACF65E071E1B7CFAE
:102F000066E371E1B4CF68E371E1B1CF61E471E1EF
:102F1000AECF6AE471E1ABCF6AE272E1A8CF61E4BF
:102F200072E1A5CF62E672E1A2CFB0E0A0E0EBE9EA
:102F3000F7E10C94172A5C016B01FC018081D3DE60
:102F4000C82FF92E60917D02669566958091810269
:102F500090918202A2D8182F80E4810FF0D890E8D7
:102F6000992E980E812FEBD820E8822E880ED0E083
:102F7000CF1548F081E08F1508F480E0CDB7DEB7BB
:102F8000ECE00C94332AFE01EC5FFE4F8681F501E4
:102F90009181892389F060917A0270917B028091FE
:102FA0007C02E12E0C2F282D492DF60109953DDCE0
:102FB000472F282FCE01FDDC2196DACF68E971E199
:102FC000B4CF65EC71E1B1CF63EF71E1AECFB0E0AA
:102FD000A0E0EDEEF7E10C941A2A8C017B01FC01D4
:102FE000808181DEC82FB92E20917D0231E0230F30
:102FF00008F42FEF30E050E040E06FEF7FEF80E02B
:1030000090E00E94EF296901D0E02C2FCB1548F009
:1030100081E08B1508F480E0CDB7DEB7E9E00C94D1
:10302000362AFE01EC5FFE4F8681F80191818923EB
:10303000F1F0409185024150042E000C550B47FFE2
:1030400018C0C60160917D0221E0620F08F46FEFA5
:1030500024D8AC0160917A0270917B0280917C024D
:10306000F7010995E2DB472F282FCE01A2DC21963C
:10307000CCCFFA01EB57FD4F818982130AC0FA01C8
:10308000EE0FFF1FEB57FD4F818D928D8C159D0527
:10309000C8F241505109D3CF6CE772E198CF69E88B
:1030A00072E195CFAAE0B0E0E8E5F8E10C94112ACE
:1030B0008A832B015E834D83FB01808114DE9B8319
:1030C000F0918502FC83282F30E03A872987C901D7
:1030D000880F991FFC01EC5FFE4F6F01FA818F2F63
:1030E00090E09C012F5F3F4F38872F83EB81F9855C
:1030F000FE1740F081E0E23008F080E02A96E2E13D
:103100000C942D2AE985FA85EC5FFE4F8681F20149
:1031100091818923E9F030907A0210917B022F810E
:1031200038852B573D4F39013A813983212C29812C
:103130003C812317B0F060917C02822D0E944510E3
:10314000632D712F72DB472F282F89859A8531DCFB
:1031500089859A8501969A87898792E0C90ED11C44
:10316000C5CFF30181913F01F601A280A81ABB08E7
:103170008380F3018781881A9908AA9C9001AB9CEF
:10318000300D300D1124889CC001899C900D900D4C
:103190001124820F931F0E945A10082F60917D0204
:1031A00021E0620F08F46FEFF301EE0FFF1FE55807
:1031B000F240858996890E944D107C019401A501F9
:1031C000632D712F822DED81FE810995362E172FEB
:1031D000F981FF5FF983282EAACF2091850231E083
:1031E000231B08F420E04BE952E1BC01822F5ACFA7
:1031F0004BE952E1BC0180E055CF2091850231E0DE
:10320000231B08F420E044EB52E1BC01822F4ACF9B
:1032100044EB52E1BC0180E045CF2091850231E0D2
:10322000231B08F420E04FEE52E1BC01822F3ACF7D
:103230004FEE52E1BC0180E035CF2091850231E0B4
:10324000231B08F420E041E253E1BC01822F2ACF86
:1032500041E253E1BC0180E025CF2091850231E0BD
:10326000231B08F420E049E353E1BC01822F1ACF6D
:1032700049E353E1BC0180E015CFB0E0A0E0E3E416
:10328000F9E10C941B2A7C01FC0180812CDDC82F04
:10329000192F60917A0270917B0280917C02C5DACD
:1032A000062FD72EC82ED0E0C11748F081E012308B
:1032B00008F080E0CDB7DEB7E8E00C94372AFE01D5
:1032C000EC5FFE4F8681F7019181892329F02C2D37
:1032D0004D2D602FCE016DDB2196E6CFB0E0A0E052
:1032E000E4E7F9E10C94182A7C01FC018081FBDC05
:1032F000C82F192FD0907B0200917C02D0917A02C6
:103300006D2F7D2D802F91DAC62EB72EA82E6091BD
:103310007D026D0F7D2D802F88DA062FD72E982EF7
:10332000D0E0C11748F081E0123008F080E0CDB75E
:10333000DEB7EBE00C94342AFE01EC5FFE4F968181
:10334000F7018181892351F0292D4D2D602F90FDAA
:1033500003C02A2D4B2D6C2DCE012BDB2196E1CF06
:10336000B0E0A0E0E6EBF9E10C941B2A8C01FC0133
:103370008081B9DCC82FF92ED0907B02C0907C02EE
:1033800060917D0280E40E944510E82ED0E0CF15C8
:1033900048F081E08F1508F480E0CDB7DEB7E8E0B3
:1033A0000C94372AFE01EC5FFE4F8681F801918173
:1033B0008923A1F0FE01EE0FFF1FEC5FFE4F83811A
:1033C00082958F7060917A028E9D600D11247D2D03
:1033D0008C2D2BDA472F282FCE01EBDA2196D7CF71
:1033E000B0E0A0E0E6EFF9E10C941B2A8C01FC01AF
:1033F000808179DCC82FF92ED0907B02C0907C02AE
:1034000060917D0280E40E944510E82ED0E0CF1547
:1034100048F081E08F1508F480E0CDB7DEB7E8E032
:103420000C94372AFE01EC5FFE4F8681F8019181F2
:103430008923C1F0FE01EE0FFF1FEC5FFE4F62819A
:10344000E69EB001112495E0759567959A95E1F790
:1034500080917A02680F7D2D8C2DE7D9472F282F78
:10346000CE01A7DA2196D3CF0F931F93CF93DF938B
:10347000EC01888181111BC060917D0220E1620F07
:1034800008F46FEF80918102909182020E944D10AA
:103490006AE070E00E94A629892B49F40E948A10F4
:1034A00090E0880F991F9093120110921301888168
:1034B0001ADC092F182F9A8191111AC0209112013C
:1034C000309113018217130609F0A0F402171306B6
:1034D00089F080F06981822F83DA83E090E0909315
:1034E00013018093120106C06981812F79DA1F5F71
:1034F0001017D0F381E0023008F080E0DF91CF9127
:103500001F910F9108950F931F93CF93DF93EC01B9
:10351000888181111BC060917D0220E1620F08F457
:103520006FEF80918102909182020E944D1065E0C0
:1035300070E00E94A629892B49F40E948A1090E02D
:10354000880F991F90931001109211018881CBDB95
:10355000092F182F9A8191111AC0209110013091D2
:1035600011018217130609F0A0F40217130689F05F
:1035700080F06981822F6FDA83E090E090931101EF
:103580008093100106C06981812F65DA1F5F1017D3
:10359000D0F381E0023008F080E0DF91CF911F91FD
:1035A0000F910895B0E0A0E0E8EDFAE10C94152A3F
:1035B000EC01888198DB882E092F8A81882341F0CD
:1035C00040E060E080E067DA10925E0210925D02F7
:1035D0008881811114C08091600290916102A6D708
:1035E00021E08931910508F420E020935F0249979A
:1035F00030F00E941523909361028093600294E062
:10360000C92E91E0D92EF12CE12C2AEA922ED60176
:10361000ED916D01E81508F439C0E01708F036C0E7
:10362000F0E0EC5FFE4F86819981892309F42EC07A
:10363000F701E35AFD4F5F011081212F35E5231B70
:1036400008F420E0692C621A70907B02292D210F6A
:1036500008F42FEF822F880F820F60917C028E5F1B
:103660000E944510B301E1D8472FF60131979081B0
:10367000282F892F90E09DD980915F02882331F017
:1036800021E0121B08F410E0D5011C93B1E0EB1609
:10369000F10449F481E0023008F080E0CDB7DEB7F4
:1036A000EEE00C94312AEE24E394F12CB0CFFF929B
:1036B0000F931F93CF93DF93082F809118018013EE
:1036C00022C09091790293702091190130E081E03D
:1036D0009217130609F480E081708093170180919E
:1036E0007E0290911601981731F08093160140E008
:1036F00060E080E0D0D90C3280F4E02FF0E0EE5BA7
:10370000F44D0C940B2A81E0E7CF809117018823B8
:1037100049F040E060E080E0BED980E003C085E190
:1037200091E0ABDD909115019F5F909315018111A0
:103730000CC082E08093140180911701811105C0B3
:10374000011103C083E080931401CDB7DEB7E5E03B
:103750000C943A2A85E191E0C1DDE4CF85E191E066
:10376000FFDDE0CF85E191E03BDEDCCF85E191E05C
:10377000BEDBD8CF85E191E0BDDBD4CF85E191E020
:10378000BCDBD0CF85E191E066DBCCCF85E191E079
:1037900065DBC8CF85E191E007DBC4CF85E191E02F
:1037A00006DBC0CF85E191E0ABDBBCCF85E191E0EA
:1037B000AADBB8CF85E191E0A9DBB4CF85E191E048
:1037C000A8DBB0CF85E191E0F5DAACCF85E191E0FF
:1037D00048DBA8CF85E191E047DBA4CF85E191E00C
:1037E000ECDAA0CF85E191E0E9DB9CCF85E191E0C7
:1037F000E8DB98CF85E191E0E7DB94CF85E191E0CC
:1038000033DE90CF85E191E07EDE8CCF85E191E0E3
:1038100083DB88CF85E191E082DB84CF85E191E095
:1038200081DB80CF8091150181111CC080912A021B
:1038300090912B027BD640917D0220E431E0241B45
:1038400031092817390770F40E948A1090E0880F18
:10385000991F90930E0110920F01E7D690932B02BF
:1038600080932A02809115013EDAC92F20910E0122
:1038700030910F018217130609F018F592171306FD
:1038800001F1F8F02C5F3E4FF9018681909116010D
:103890008923B9F00E948A1081FF18C0D0E070E03F
:1038A00080E06D2F0E941514472F282F80910E0164
:1038B00090910F017ED883E090E090930F01809368
:1038C0000E0181E0C23008F42DCF27CF0E948A106C
:1038D000D82F0E948A10F0E88F9FC00111247FE743
:1038E000790F80917C02DDCF80911701882321F030
:1038F00040E060E080E0CFD880911501F4D9F92E46
:103900004091810250918202609183027091840201
:103910008091260290912702A0912802B09129025D
:1039200084179507A607B70708F05BC060917A0275
:1039300070917B0280917C020E9415149091250267
:10394000EB01182F911103C010E0D0E0C0E080918E
:10395000040190E0FC01EC5FFE4F268130911601DE
:10396000232321F0212F4D2F6C2F23D88091050187
:1039700090E0FC01EC5FFE4F26813091160123237D
:1039800021F0212F4D2F6C2F14D80E948A108370A4
:1039900091E009F090E09093250220917D0230E1C2
:1039A000230F08F42FEF60E1822F90E00E944D106A
:1039B000BC0188EB9BE00E94A62980918102909136
:1039C0008202A0918302B0918402860F971FA11DED
:1039D000B11D8093260290932702A0932802B093F2
:1039E000290281E08F1508F09DCE97CE85E191E008
:1039F000D9DD98CE85E191E054D894CE85E191E06F
:103A00004BDB90CE85E191E04ADB8CCE85E191E005
:103A1000E4DB88CE85E191E0EBDB84CE85E191E0CB
:103A2000ECDB80CE85E191E0F3DB7CCE85E191E0BB
:103A3000F4DB78CE85E191E0FBDB74CE85E191E0AB
:103A4000FCDB70CE85E191E003DC6CCE85E191E09A
:103A500004DC68CE85E191E00BDC64CE81E0089562
:103A6000FDCF0895FBCF0895CF93DF93FC018081B4
:103A7000815039D9EC016D2FF3DF6D2F8C2FF2DFE0
:103A8000DF91CF9108954F925F926F927F928F92C4
:103A90009F92AF92BF92CF92DF92EF92FF92CF931D
:103AA000609158027091590280915A0290915B0284
:103AB00046D56B017C01C5D54B015C018092580253
:103AC00090925902A0925A02B0925B02A0912F02EA
:103AD000EFE2F2E08A2F90E04FEF5FEF60E070E0FE
:103AE0004C195D096E097F09A9132AC080932F0222
:103AF00080915C02C0E0811108C080917902C82FDA
:103B0000C37019F0C82FC695C695809114018130F5
:103B100009F440C0882339F1823009F448C0833069
:103B200009F450C0CF91FF90EF90DF90CF90BF90FD
:103B3000AF909F908F907F906F905F904F9008957F
:103B4000218D328D2901712C612C44155505660596
:103B5000770520F481509F5F3296C6CF2C0D3D1D16
:103B6000328F218FF8CF10921501809281029092AE
:103B70008202A0928302B092840289E2EFE2F2E034
:103B8000A5E8B2E001900D928A95E1F781E080937B
:103B90001401C8CF8C2F8BDDCC2321F2809114012E
:103BA000823009F49ED885E191E05EDFBBCFC093FF
:103BB0001801809179028370809319010E94D214B8
:103BC00083E0E5CF80912E02882331F089E792E0EF
:103BD0000E94E40A10922E0260918102709182028A
:103BE0008091830290918402AAD46031710581058D
:103BF000910508F497CF1092140194CFE091A7019A
:103C0000F091A8010995109285028FEF9FEF909394
:103C10009F0280939E029093A1028093A0029093B2
:103C2000A3028093A2029093A5028093A402909392
:103C3000A7028093A6029093A9028093A802909372
:103C4000AB028093AA029093AD028093AC021092D3
:103C50002F02909349028093480290934B028093E5
:103C60004A0290934D0280934C0290934F028093AE
:103C70004E0290935102809350029093530280938E
:103C8000520290935502809354029093570280936E
:103C9000560281E080932E0289E792E00E94E20AB8
:103CA00010922E02809179028C7F11F40C949B1457
:103CB0000895CF93C82F882389F080915C028111E9
:103CC0000DC0F5DC10921801809179028370809309
:103CD00019010E94D21483E080931401C0935C0206
:103CE000CF910895E9E7F2E0908121E09227908357
:103CF000109214010C944F1381E0F4CF809179025B
:103D0000837011F410921401809179028C7F81608C
:103D1000809379020895F2DF81E00C944F13809133
:103D20007902837011F010921401809179028C7FD6
:103D3000809379020895F3DF81E00C944F13909102
:103D40007902937051F0811109C0946090937902C7
:103D500010921401862F0C944F1308958C3210F09A
:103D60009C6AF4CF282F220F220F922BEFCF682FBF
:103D7000909179029695969581E0890F8C3208F0A2
:103D800081E0DDCF81E0F3CF682F909179029695A5
:103D900096958FEF890F09F48BE2D1CF81E0F4CFB4
:103DA00090917902937049F080937A0260937B023C
:103DB00040937C02822F0C944F130895A9E7B2E040
:103DC0001196EC911197F0E0282F13964C911397D0
:103DD00012966C91CF010896E3CF81E0EFCFE9E72F
:103DE000F2E09181282F43816281E92FE850FF0B97
:103DF000CF01D6CF81E0F3CFE9E7F2E0628120E1A5
:103E0000620F08F46FEF9181282F4381892F90E092
:103E1000C7CF81E0F1CFE9E7F2E0628120E1621BE8
:103E200008F460E09181282F4381892F90E0B8CF7A
:103E300081E0F1CFE9E7F2E0438120E1420F08F4AD
:103E40004FEF9181282F6281892F90E0A9CF81E0E7
:103E5000F1CFE9E7F2E0438120E1421B08F440E0C2
:103E60009181282F6281892F90E09ACF81E0F1CF54
:103E7000E9E7F2E0248130E1230F08F42FEF2483F7
:103E80000C944F1381E0F4CFE9E7F2E0248130E1B4
:103E9000231B08F420E024830C944F1381E0F4CF1B
:103EA000229A0895FC01EE0FFF1FE80FF91FE2555B
:103EB000FD4F6183408322830895EEEAF2E081831F
:103EC00060834283848363834583089535B13B7F58
:103ED00025B124604FB7F8948EEA92E0FC0151912D
:103EE000CF0168E025B9000000C057FF35B9550F74
:103EF000000000C000C000C035B900C06A9591F74D
:103F0000F2E0843B9F0751F74FBF8FE594E00197A4
:103F1000F1F700C0000008950C94D40A089580E0E1
:103F20000E943C0E817008950E94980E2FEF86E744
:103F300091E0215080409040E1F700C000000E94D5
:103F4000980EEDDF882311F0E7DFABC30895ECCFC7
:103F50000895CF93DF93EB0186319C4701F50E94D2
:103F6000CF099D81992391F08A7A91E009F490E03C
:103F700090936202811108C089E24FD20E94570AD1
:103F800080E0DF91CF91089585E3F7CF80916202C1
:103F9000811103C089E247D2F1CF85E3FCCF81E0F4
:103FA000F0CFCF93DF93EC01FB018581882309F4E7
:103FB000CEC09E0130572332310508F0AEC085E7F0
:103FC00092E00E94DE0AFE01E150F047E232F10584
:103FD00020F4E259F44D0C940B2A80917502816013
:103FE0008093750293C080917602886080937602F8
:103FF0008DC0809175028260F3CF809175028460DC
:10400000EFCF809175028860EBCF8091760281605E
:10401000EDCF809176028260E9CF80917502806158
:10402000DFCF809175028062DBCF80917502806462
:10403000D7CF0E94A505809175028068D1CF80916D
:1040400075028C60CDCF809176028360CFCF809156
:1040500075028E7FC5CF80917602877FC7CF809112
:1040600075028D7FBDCF809175028B7FB9CF809116
:104070007502877FB5CF809176028E7FB7CF809112
:1040800076028D7FB3CF809175028F7EA9CF80910C
:1040900075028F7DA5CF809175028F7BA1CF0E9485
:1040A000A505809175028F779BCF80917502837FE4
:1040B00097CF809176028C7F99CF8091750282FB99
:1040C000992790F921E0922790FB82F990FB83F9E0
:1040D00087CF80917602982F909591708E7F892B53
:1040E00090FB81F983CF90917502892F8F7B96FF8A
:1040F000806476CF0E94A50590917502892F97FB69
:1041000087F980586DCF81E00E94E60A85E792E04A
:104110000E94E00A0E94A50580E0DF91CF910895FA
:1041200080E0F2CF90917502892F8F7E94FF80619D
:1041300057CF90917502892F8E7F90FF816050CF6D
:1041400090917602892F877F93FF88604FCF81E01F
:10415000E4CF0F931F93CF93DF93C42FD22FFC0193
:1041600085818823C1F0409365025FD290936402F9
:104170008093630280E28C0F883040F4C77081E046
:1041800001C0880FCA95EAF70E949903DF91CF9189
:104190001F910F91089510916502141331C0809101
:1041A000630290916402C2D1883C910548F5C0E257
:1041B000CD0F1D17B9F080E2810F883040F41770E1
:1041C00081E001C0880F1A95EAF70E949E03C8306B
:1041D00048F481E09D2F977001C0880F9A95EAF707
:1041E0000E949903802F0E949203C83078F6D770FE
:1041F00081E001C0880FDA95EAF70E949E03C6CFDE
:1042000080E28C0F883010F6C77081E001C0880F03
:10421000CA95EAF7F2CF0F93DB0188519C478730AC
:10422000910598F5FC01E057F44D0C940B2A06E239
:1042300021EE41EE6AE17CE7CD018BDF80E00F915A
:10424000089507E225EE45EE6BE17CE7F5CF06E247
:1042500021EE40EE68E17CE7EFCF07E225EE44EE89
:1042600069E17CE7E9CF06E221EE42EE6CE17CE712
:10427000E3CF07E225EE46EE6DE17CE7DDCF08E215
:1042800021E045EE6EE17CE7D7CF15968C9188232F
:1042900019F010926502D3CF81E0D1CF90936B02D9
:1042A00080936A020895E0916A02F0916B02309760
:1042B00039F00190F081E02D309711F009950895C3
:1042C00080E00895E0916A02F0916B02309731F03E
:1042D0000280F381E02D309709F009950895A3E05D
:1042E000B0E0E5E7F1E20C94212A209168023091D8
:1042F000690228173907B1F0909369028093680228
:10430000E0916A02F0916B02309761F00084F185D0
:10431000E02D309739F023E029839B838A83CE01F7
:10432000019609952396E2E00C943D2AA3E0B0E0C3
:10433000ECE9F1E20C94212A2091660230916702A7
:1043400028173907B1F09093670280936602E091D5
:104350006A02F0916B02309761F00084F185E02DE4
:10436000309739F024E029839B838A83CE0101961C
:1043700009952396E2E00C943D2A40910C0150915E
:104380000D019A012E5F3F4F485F5F4F80E0241779
:10439000350709F40895F90191919F019923B9F323
:1043A0008F5FF5CF882371F020910C0130910D01C2
:1043B000F9013296285F3F4F9191981729F0E21743
:1043C000F307D1F780E0089581E008959C01FC0196
:1043D00032969FEF80E04191461751F09F3F19F4CC
:1043E000411101C0982F8F5F8630A9F79F3F09F4D4
:1043F0000895290F311D97FD3A95F90162830895BB
:10440000FC01329608962191261303C0DF01119713
:104410001C92E817F907B9F70895682F80910C01ED
:1044200090910D01D3CF682F80910C0190910D01D7
:10443000E7CFE0910C01F0910D01329686E0DF01AB
:104440001D928A95E9F708950895FECF0895811188
:104450000CC081E080931F0160911C0170911D01CF
:1044600080911E0190911F01F0CF82E0F3CF83E095
:1044700080931F0160911C0170911D0180911E01AC
:1044800090911F01E2CFE3CF089581E080931F0157
:1044900060911C0170911D0180911E0190911F017E
:1044A000D4CFF3CF089591E0811101C090E09093B3
:1044B0001E0160911C0170911D0180911E0190915F
:1044C0001F01C3CF80911E01089580931D0160914B
:1044D0001C0170911D0180911E0190911F01B5CFAB
:1044E00080911D01089580931C0160911C017091C1
:1044F0001D0180911E0190911F01A7CF80911C0189
:10450000089508950895FECF089508950895F9CF68
:104510000895FBDF0E94980EF9DF80E00E943C0EB8
:1045200091E0811101C090E0892F0895CF93DF932E
:10453000EC017BD08C1B9D0BDF91CF910895CF9226
:10454000DF92EF92FF926B017C017BD06C197D09A9
:104550008E099F09FF90EF90DF90CF90089585B767
:10456000806885BF85B7806885BF08951F921FB694
:104570001F9211248F939F93AF93BF9380916C02EE
:10458000811113C08091B4029091B502A091B6023E
:10459000B091B7024196A11DB11D8093B4029093D2
:1045A000B502A093B602B093B702BF91AF919F91AD
:1045B0008F911F901FBE1F9018958091BC02843070
:1045C00031F10E949D0210926C0288E190E020E49B
:1045D0000FB6F894A895809360000FBE20936000FA
:1045E00083B7817F846083BF83B7816083BF789402
:1045F000889583B78E7F83BF0FB6F894A895809176
:104600006000886180936000109260000FBE089582
:104610000E94A5050C94A60282E084BD93E095BD9E
:104620009AEF97BD80936E0008952FB7F89480910C
:10463000B4029091B502A091B602B091B7022FBF1B
:1046400008952FB7F8946091B4027091B5028091EB
:10465000B6029091B7022FBF089578941F921FB6AB
:104660001F9211248F939F93AF93BF938091B402B5
:104670009091B502A091B602B091B7020196A11D2A
:10468000B11D8093B4029093B502A093B602B0938B
:10469000B702BF91AF919F918F911F901FBE1F9046
:1046A000189587E797E7909301088093000888E1C1
:1046B0009AE00FB6F894A895809360000FBE90938F
:1046C0006000FFCF88E19AE00FB6F894A895809338
:1046D00060000FBE90936000FFCF089508959B0186
:1046E000BA019091BC029430E1F48F708093E9009C
:1046F0009FEF8091E800915085FD06C085ED8A9579
:10470000F1F700009111F5CF8091E80085FF09C015
:1047100050E040E0C901B0D18091E8008E778093ED
:10472000E800089543E050E0BC0182E0D8CFCF9389
:10473000DF93EC01C7DE48E050E0BE0181E0CFDF4F
:1047400088E0FE01ADE6B2E001900D928A95E1F7B6
:10475000DF91CF9108958091BB02811107C01AD3D8
:1047600071D38091E20084608093E20008951092FA
:10477000BB0208958ADE81E096CE6091B80281E0A6
:10478000611101C080E073CE9091BC0281E0943051
:1047900009F080E06091B80276CE42E061EC81E001
:1047A00075D242E261EC82E071D29091BC0281E06C
:1047B000943009F080E06091B80249CE8091BE0249
:1047C000833009F45EC030F48130C1F1823009F4E5
:1047D00094C008958A3009F483C08B3009F46BC00B
:1047E000893009F04DC08091BD02813209F048C086
:1047F0008091C1029091C202029708F041C080915D
:10480000E800877F8093E8008091E80082FF34C051
:104810009091F3008091F200029731F48091F100C1
:10482000813011F0863019F48091F1004EDE8091D4
:10483000E8008B778093E8005DD222C08091BD02B2
:10484000813AF1F48091E800877F8093E8008091BD
:10485000C1029091C202892B59F468E08DE692E082
:1048600070E057D18091E8008B778093E80008953D
:1048700060E090E080E0F4CF8091BC028111C4CF71
:1048800008958091BD02813AD9F78091C10290913B
:10489000C202892BA9F78091E800877F8093E80006
:1048A0008091E80080FFFCCF0DDE8093F1008091C5
:1048B000E8008E77BFCF8091BD02813209F78091E9
:1048C000C1029091C202892BD9F68091E800877FBE
:1048D0008093E8000FD28091BF02E5DD0C94A5051E
:1048E0008091BD02813261F68091E800877F8093DC
:1048F000E80000D28091C002F6CD8091BD02813ADD
:1049000009F0BECF8091E800877F8093E800809116
:10491000E80080FFFCCFF2DDC8CF84B7877F84BF7B
:104920000FB6F894A895809160008861809360002C
:10493000109260000FBE80E890E00FB6F89480936C
:104940006100909361000FBEACCD24D27BD2E2EE29
:10495000F0E08081846080837894DEC480E291E01E
:104960009DCC8091BC02853029F48091BC028530B9
:1049700011F04ECE089521DECCDD8823B1F3809175
:10498000BA02882391F362D00E94A505EECF089564
:104990009A014091C3025091C40200C0492F55278B
:1049A0004330510519F168F44130510509F444C010
:1049B0004230510509F445C090E080E050E040E00D
:1049C00025C04132510549F142325105A9F784E42D
:1049D00090E04BE652E061157105C1F082E390E092
:1049E00049E352E06130710589F0E6CF99278130C3
:1049F000910581F0009729F00297F1F6E8EBF1E0DC
:104A000002C0E8EEF1E0849190E0AF01F90151833A
:104A100040830895E6ECF1E0F6CF89E090E04EEFB8
:104A200051E06115710591F389E090E047E152E0B2
:104A30006130710559F3C0CF82E190E047E252E066
:104A4000E5CF8BE390E04CEE51E0E0CF80E189BD13
:104A500082E189BD09B400FEFDCF8091D8008F7D31
:104A60008093D8008091E00082608093E000809184
:104A7000E00081FDFCCF0895AF92BF92CF92DF920C
:104A8000FF920F931F93CF93DF936C01EB018A0189
:104A900050D1F82E811123C00115110539F0F8010C
:104AA00080819181C81BD90BC80ED91EB12CA12CB5
:104AB0002097A9F08091E80085FD21C08091E80051
:104AC0008E778093E80001151105A1F0F80180812F
:104AD0009181A80EB91EB182A08285E0F82E8F2D9B
:104AE000DF91CF911F910F91FF90DF90CF90BF90FA
:104AF000AF9008951ED18823D9F2F82EF0CFF60199
:104B000081916F018093F1002197FFEFAF1ABF0AE7
:104B1000CFCFFC018091C3029091C4028617970702
:104B2000A0F06115710529F49091E8009E779093AB
:104B3000E80090E06115710551F4911108C0809171
:104B4000E80082FF34C080E00895BC01F2CF80917C
:104B5000BC028823C1F18530C1F18091E80083FD5A
:104B600030C08091E80082FDEACF8091E80080FFAC
:104B7000E1CF8091F3002091F200382F611571058B
:104B800019F02830310558F091E02830310509F04E
:104B900090E02091E8002E772093E800CBCF819120
:104BA0008093F100615071092F5F3F4FE7CF8091F3
:104BB000BC02882341F0853041F08091E80083FFFA
:104BC000BECF81E0089582E0089583E00895FC015E
:104BD0008091C3029091C40286179707A0F06115D7
:104BE000710529F48091E8008E778093E80090E0C9
:104BF0006115710551F4911108C08091E80082FFA0
:104C000035C080E00895BC01F2CF8091BC028823BA
:104C1000C9F18530C9F18091E80083FD31C08091F0
:104C2000E80082FDEACF8091E80080FFE1CF80912B
:104C3000F3002091F200382F6115710519F028302A
:104C4000310558F091E02830310509F090E080916D
:104C5000E8008E778093E800CBCF84918093F100B9
:104C60003196615071092F5F3F4FE6CF8091BC02B2
:104C7000882341F0853041F08091E80083FFBDCF6B
:104C800081E0089582E0089583E00895982F973099
:104C900028F08F708093E90081E008959093E900F7
:104CA000242F762F50E0981731F07091EC0020916E
:104CB000ED005091F00021FD02C09F5FE8CF3091E0
:104CC000EB003E7F3093EB003091ED003D7F309361
:104CD000ED003091EB0031603093EB007093EC000D
:104CE0002093ED005093F0002091EE0027FDE5CFDA
:104CF00080E008958091BD0287FF13C08091E80095
:104D000082FF06C08091E8008B778093E80004C0A2
:104D10008091BC028111F2CF08958091BC0288235A
:104D2000D9F38091E80080FFF8CF8091E8008E777A
:104D3000ECCF2091E4003091E50095E6A9012091A7
:104D4000EC00822F817020FF06C08091E80080FF78
:104D500006C080E008952091E80022FD1AC08091ED
:104D6000BC02882389F0853089F08091EB0085FDB5
:104D70000FC02091E4003091E50042175307F9F28B
:104D80009150E1F684E0089582E0089583E008956B
:104D900081E0089567D06ED0E0EEF0E08081816020
:104DA0008083E8EDF0E080818F77808319BCA7EDE8
:104DB000B0E08C918E7F8C9380818F7E8083109267
:104DC000BB0208950F931F93CF93DF934BD052D024
:104DD000C8EDD0E088818F77888388818068888358
:104DE00088818F7D888319BC1092BC021092B80212
:104DF0001092BA021092B90200EE10E0F801808120
:104E00008B7F808388818160888342E060E080E0DE
:104E10003DDFE1EEF0E080818E7F8083E2EEF0E026
:104E2000808181608083808188608083F8018081B7
:104E30008E7F8083888180618883DF91CF911F91ED
:104E40000F910895E8EDF0E080818F7E8083E7ED9B
:104E5000F0E080818160808384E082BF81E0809384
:104E6000BB02B0CFE8EDF0E080818E7F80831092AE
:104E7000E20008951092DA001092E10008951F9266
:104E80000F920FB60F9211242F933F934F935F937E
:104E90006F937F938F939F93AF93BF93EF93FF9302
:104EA0008091E10082FF0AC08091E20082FF06C08B
:104EB0008091E1008B7F8093E1002DD28091DA0018
:104EC00080FF18C08091D80080FF14C08091DA0064
:104ED0008E7F8093DA008091D90080FF91C080E1BD
:104EE00089BD82E189BD09B400FEFDCF81E08093D8
:104EF000BC0231DC8091E10080FF18C08091E200AB
:104F000080FF14C08091E2008E7F8093E200809148
:104F1000E20080618093E2008091D80080628093FB
:104F2000D80019BC85E08093BC0227DC8091E100A9
:104F300084FF2AC08091E20084FF26C080E189BD01
:104F400082E189BD89B5982F917080FFFBCF809158
:104F5000D8008F7D8093D8008091E1008F7E809370
:104F6000E1008091E2008F7E8093E2008091E20078
:104F700081608093E2008091B802882309F445C0E3
:104F800084E08093BC0200DC8091E10083FF27C0B5
:104F90008091E20083FF23C08091E100877F8093AE
:104FA000E10082E08093BC021092B8028091E1009F
:104FB0008E7F8093E1008091E2008E7F8093E200FB
:104FC0008091E20080618093E20042E060E080E056
:104FD0005DDE8091F00088608093F000CBDBFF9174
:104FE000EF91BF91AF919F918F917F916F915F9161
:104FF0004F913F912F910F900FBE0F901F901895DA
:1050000019BC1092BC02B3DB75CF8091E30087FD21
:1050100093E09093BC02B7CF1F920F920FB60F92FE
:1050200011242F933F934F935F936F937F938F93AD
:105030009F93AF93BF93CF93DF93EF93FF93D09161
:10504000E900DF708091EC00C82FC17080FDC0E8DE
:105050001092E9008091F000877F8093F0007894AF
:105060001ED01092E9008091F00088608093F000DB
:10507000CD2BCF70C093E900FF91EF91DF91CF91DD
:10508000BF91AF919F918F917F916F915F914F9160
:105090003F912F910F900FBE0F901F901895AAE28D
:1050A000B0E0E4E5F8E2CCC18DEB92E02091F100B4
:1050B000FC012193CF01F2E0853C9F07B9F77EDB2D
:1050C0008091E80083FF16C18091BD029091BE02DD
:1050D0009A3008F00FC1E92FF0E0E956F44D9BC17A
:1050E000803899F0823809F005C18091C1028F7033
:1050F000873008F0FFC08093E9008091EB0085FBCA
:10510000882780F91092E90006C08091B902909139
:10511000BA02911182609091E800977F9093E80025
:105120008093F1001092F1008091E8008E77DFC04B
:10513000882309F4CDC0823009F0DCC08091BF0221
:105140008111D0C08091C1028F702FEF280F2630BF
:1051500008F0D0C08093E9002091EB0020FFC2C08E
:10516000933031F48091EB0080628093EB00BAC001
:105170009091EB0090619093EB0021E030E001C052
:10518000220F8A95EAF72093EA001092EA008091B4
:10519000EB008860EACF8111ADC01091BF021F778C
:1051A0008091E3008078812B8093E3008091E80078
:1051B000877F8093E8009EDD8091E80080FFFCCF30
:1051C0008091E30080688093E30082E0111183E026
:1051D0008093BC028FC08058823008F08BC08091D1
:1051E000BF029091C0028C3D23E0920799F583E0C5
:1051F0008A838AE289834FB7F894DE01139620E010
:105200003EE051E2E32FF0E050935700E49120FF9D
:1052100003C0E295EF703F5FEF708E2F90E0EA30B1
:10522000B8F0C7968D939D932F5F243159F74FBFE8
:105230008091E800877F8093E8006AE270E0CE0109
:10524000019667DC8091E8008B778093E80052C07C
:10525000C096E8CF6091C1027091C202AE014F5F6B
:105260005F4F96DBBC01892B09F444C09091E800A4
:10527000977F9093E80089819A81A9DCE3CF8038F9
:10528000C9F58091E800877F8093E8008091B8029B
:105290008093F10049CF81112DC09091BF029230CF
:1052A00048F58091E800877F8093E8009093B802EA
:1052B00021DD8091B802882311F084E005C080913F
:1052C000E30087FDFACF81E08093BC0266DA12C06A
:1052D0008091BF02813071F481E0933009F080E069
:1052E0008093BA021092E9008091E800877F809352
:1052F000E80000DD8091E80083FF0AC08091E800AB
:10530000877F8093E8008091EB0080628093EB00C0
:10531000AA96E3E0B1C00895CF938091BC028823A0
:1053200099F0C091E900CF709091EC00892F8170C5
:1053300090FD80E8C82B1092E9008091E80083FD81
:10534000AEDECF70C093E900CF910895AA1BBB1BBE
:1053500051E107C0AA1FBB1FA617B70710F0A61B75
:10536000B70B881F991F5A95A9F780959095BC0196
:10537000CD01089597FB072E16F4009406D077FD13
:1053800008D0E4DF07FC05D03EF4909581959F4F4F
:105390000895709561957F4F0895A1E21A2EAA1B7A
:1053A000BB1BFD010DC0AA1FBB1FEE1FFF1FA217D5
:1053B000B307E407F50720F0A21BB30BE40BF50BD2
:1053C000661F771F881F991F1A9469F7609570955B
:1053D000809590959B01AC01BD01CF010895052EEC
:1053E00097FB16F400940FD057FD05D0D6DF07FCCD
:1053F00002D046F408C050954095309521953F4F16
:105400004F4F5F4F089590958095709561957F4FB0
:105410008F4F9F4F0895EE0FFF1F0590F491E02DE1
:1054200009942F923F924F925F926F927F928F9248
:105430009F92AF92BF92CF92DF92EF92FF920F9323
:105440001F93CF93DF93CDB7DEB7CA1BDB0B0FB62D
:10545000F894DEBF0FBECDBF09942A8839884888EA
:105460005F846E847D848C849B84AA84B984C88480
:10547000DF80EE80FD800C811B81AA81B981CE0F77
:10548000D11D0FB6F894DEBF0FBECDBFED0108955C
:105490008F929F92AF92BF92CF92DF92EF92FF9244
:1054A000CF93DF93EC01688179818A819B816115BB
:1054B00071058105910521F464E279ED8BE597E0B2
:1054C0002DE133EF41E050E08ADF49015A019B01B1
:1054D000AC01A7EAB1E491D06B017C01ACEEB4EF72
:1054E000A501940196D0DC01CB018C0D9D1DAE1D54
:1054F000BF1DB7FF03C00197A109B04888839983F6
:10550000AA83BB839F77DF91CF91FF90EF90DF90CD
:10551000CF90BF90AF909F908F900895B9CF80E0CB
:1055200091E0B6CFB0E0A0E080930001909301013C
:10553000A0930201B09303010895FB01DC0104C0B4
:105540008D910190801921F441505040C8F7881B7B
:10555000990B0895FB01DC0102C001900D924150AE
:105560005040D8F70895DC01CB01FC01F999FECF3A
:1055700006C0F2BDE1BDF89A319600B40D924150DB
:105580005040B8F70895F999FECF92BD81BDF89AC1
:10559000992780B50895A8E1B0E042E050E0E5CF5A
:1055A000DC01A40FB51F4150504040F0CB01840FE7
:1055B000951F2E9105D041505040D8F70895262FC1
:1055C000F999FECF92BD81BDF89A019700B40216F9
:1055D00039F01FBA20BD0FB6F894FA9AF99A0FBEA7
:1055E00008950396272FECDFEADF252FE9DF242F2C
:1055F000E7CF0196272FE4DFE2CF0FD0A59F900DD4
:10560000B49F900DA49F800D911D11240895B7FFA4
:10561000F4CFF3DF821B930B0895A29FB001B39FD9
:10562000C001A39F700D811D1124911DB29F700DAB
:10563000811D1124911D0895F894FFCFE103E1032A
:105640001704170470040904090409048C04F50400
:1056500001050105210F290F2E0F330F380F3D0FC4
:10566000420F470F4C0F510F560F720F790F7C0FDF
:105670007F0F840F890F8E0F930F980F9D0FA20F2E
:10568000A70FAC0F851B8F1BAA1BAE1BB21BB61B33
:10569000BA1BBE1BC21BC61BCA1BCE1BD21BD61BF2
:1056A000DA1BDE1BE21BE61BEA1BEE1BF21BF61BE2
:1056B000FA1BFE1B021C061C0A1C0E1C121C741C6E
:1056C000F61CFA1CFE1C021D061D0A1D0E1D121DD5
:1056D000161D1A1D1E1D221D261D2A1D272099205C
:1056E0002F20F91FFD1F33200120372043200D20DC
:1056F00092201120472015204B20732019204F2085
:105700007A201F2055205D2005203B2009203F20C6
:1057100023205920692083209020F31F2B20A020D4
:1057200027212D2117212121332139213F217028C3
:1057300098287A2998287A29CB28EB287A293F2992
:025740004B29F3
:105742000100000000010020E020FFFF0C02030026
:10575200030003000300FF00FFFF39050000010002
:10576200702297236E236D2392235AFF80E200E971
:1057720000EA00B500B600B700CD008301CC008A74
:10578200019201940121022302240225022602270A
:10579200022A02B300B4006F0070009F01CB019F88
:1057A20002A002818283E200E900EA00B500B600AD
:1057B200B700CD008301CC008A019201940121023D
:1057C200230224022502260227022A02B300B40081
:1057D2006F0070009F01CB019F02A00281828300B3
:1057E2003131295A1B750A501F521F5D1F661F0057
:00000001FF
